:020000040800F2
:1000000040F600200525020865FB010867FB010892
:1000100069FB01086BFB01086DFB01080000000093
:100020000000000000000000000000006957010807
:100030006FFB0108000000000D57010871FB01086B
:10004000B9290208BD290208C1290208C5290208E8
:10005000C9290208CD290208D1290208D529020898
:10006000D9290208DD290208E1290208E529020848
:10007000E9290208ED290208F1290208F5290208F8
:10008000F9290208FD290208012A0208052A0208A6
:10009000092A02080D2A0208112A0208152A020854
:1000A000192A02087FBE01081D2A0208212A020817
:1000B000252A0208292A02082D2A0208312A0208C4
:1000C000352A0208392A02083D2A0208412A020874
:1000D000452A0208492A02084D2A0208512A020824
:1000E000552A0208592A02085D2A0208612A0208D4
:1000F000652A0208692A02086D2A0208712A020884
:10010000752A0208792A02087D2A0208812A020833
:10011000852A0208892A02088D2A0208912A0208E3
:1001200085FB0108952A0208992A02089D2A0208DF
:10013000A12A02088FFB0108A52A0208A92A0208A1
:10014000AD2A0208B12A0208B52A0208B92A020813
:10015000BD2A0208C12A0208C52A0208C92A0208C3
:10016000CD2A0208D12A0208D52A0208D92A020873
:10017000DD2A0208E12A0208E52A02080000000040
:10018000E92A0208ED2A0208F12A0208F52A0208E3
:10019000F92A0208FD2A0208012B0208052B020891
:1001A0000000000000000000092B02080D2B0208CF
:1001B000112B0208152B0208192B02081D2B02080F
:1001C000212B0208252B02082F6D61696E5F636F7A
:1001D0006E662E7368746D6C0000000048545450B5
:1001E0002F312E3020323030204F4B0D0A536572A4
:1001F0007665723A206C7749502F312E332E31209C
:1002000028687474703A2F2F736176616E6E61681E
:100210002E6E6F6E676E752E6F72672F70726F6ABB
:10022000656374732F6C776970290D0A436F6E7460
:10023000656E742D747970653A20746578742F68D2
:10024000746D6C0D0A457870697265733A20467258
:10025000692C20313020417072203230303820310A
:10026000343A30303A303020474D540D0A507261E4
:10027000676D613A206E6F2D63616368650D0A0DCD
:100280000AEFBBBF3C21444F4354595045204854CA
:100290004D4C205055424C494320222D2F2F57338F
:1002A000432F2F4454442048544D4C20342E303199
:1002B000205472616E736974696F6E616C2F2F4583
:1002C0004E223E0D0A3C68746D6C3E3C686561646C
:1002D0003E0D0A3C6D6574612063686172736574DC
:1002E0003D227574662D38223E0D0A3C7374796C7C
:1002F000653E0D0A2E68317B0D0A666F6E743A20DA
:100300006E6F726D616C206E6F726D616C20323237
:1003100070782F3339707820417269616C2C2048D5
:10032000656C7665746963612C2073616E732D73DF
:10033000657269663B0D0A7D0D0A0D0A2E707B0DF4
:100340000A666F6E743A206E6F726D616C20313484
:10035000707820417269616C2C2048656C766574F8
:100360006963612C2073616E732D73657269663BDE
:100370000D0A7D0D0A0D0A2E696E7075747B0D0ACB
:10038000646973706C61793A20696E6C696E652D71
:10039000626C6F636B3B0D0A626F782D73697A69CB
:1003A0006E673A20636F6E74656E742D626F783B72
:1003B0000D0A70616464696E673A20357078203187
:1003C0003070783B0D0A626F726465723A2031704A
:1003D0007820736F6C696420236237623762373B21
:1003E0000D0A626F726465722D7261646975733A89
:1003F000203470783B0D0A666F6E743A206E6F720F
:100400006D616C203134707820417269616C2C20F0
:1004100048656C7665746963612C2073616E732D19
:1004200073657269663B0D0A746578742D6F766525
:1004300072666C6F773A20636C69703B0D0A62617B
:10044000636B67726F756E643A20726762612832FF
:1004500035322C3235322C3235322C31293B0D0AD3
:10046000746578742D736861646F773A20317078A1
:100470002031707820302072676261283235352C47
:100480003235352C3235352C302E3636293B0D0A97
:100490007472616E736974696F6E3A20616C6C205E
:1004A0003230306D732063756269632D62657A69DD
:1004B000657228302E34322C20302C20302E3538E6
:1004C0002C2031293B0D0A7D0D0A0D0A2E74647B08
:1004D0000D0A70616464696E673A20313070783B50
:1004E0000D0A70616464696E672D72696768743A99
:1004F00020323070783B0D0A666F6E743A206E6F52
:10050000726D616C203134707820417269616C2C9D
:100510002048656C7665746963612C2073616E7325
:100520002D73657269663B0D0A7D0D0A0D0A2E62F8
:100530007574746F6E2C202E746573742C202E6469
:10054000656C7B0D0A666F6E743A206E6F726D611A
:100550006C206E6F726D616C20313470782F313485
:10056000707820417269616C2C2048656C766574E6
:100570006963612C2073616E732D73657269663BCC
:100580000D0A0D0A626F726465722D72616469757D
:10059000733A203470783B0D0A636F6C6F723A20A7
:1005A000236666663B0D0A70616464696E673A2073
:1005B00036707820313270783B0D0A746578742D6E
:1005C000736861646F773A203170782031707820D9
:1005D00030207267626128302C302C302C2E352967
:1005E0003B0D0A626F782D736861646F773A2069FA
:1005F0006E73657420302031707820302030207286
:10060000676261283235352C3235352C3235352C40
:100610002E35293B0D0A636F6C6F723A2023666694
:10062000666666663B0D0A746578742D736861644E
:100630006F773A2030202D31707820302072676239
:100640006128302C20302C20302C20302E323529BF
:100650003B0D0A626F782D736861646F773A206989
:100660006E7365742030203170782030207267629C
:1006700061283235352C203235352C203235352C59
:1006800020302E32292C20302031707820327078A2
:10069000207267626128302C20302C20302C2030D2
:1006A0002E3035293B0D0A7D0D0A0D0A2E62757418
:1006B000746F6E2D736176657B0D0A6261636B6783
:1006C000726F756E642D636F6C6F723A20233030D9
:1006D000383863633B0D0A6261636B67726F756ED6
:1006E000642D696D6167653A202D7765626B697469
:1006F0002D6772616469656E74286C696E656172DC
:100700002C203020302C203020313030252C206619
:10071000726F6D2823333338346363292C20746F50
:10072000282330303438636329293B0D0A62616322
:100730006B67726F756E642D7265706561743A20B7
:100740007265706561742D783B0D0A626F72646525
:10075000722D636F6C6F723A2023303038386363C8
:1007600020233030383863632023303038386363D7
:100770003B0D0A626F726465722D636F6C6F723A23
:10078000207267626128302C2037322C20323535B8
:100790002C20302E3129207267626128302C2037BE
:1007A000322C203235352C20302E312920726762D0
:1007B0006128302C20302C20302C20302E3235294E
:1007C0003B0D0A7D0D0A0D0A2E627574746F6E2D35
:1007D000746573747B0D0A6261636B67726F756E0B
:1007E000642D636F6C6F723A233335393233383B83
:1007F0000D0A6261636B67726F756E642D696D615E
:1008000067653A202D7765626B69742D6772616444
:1008100069656E74286C696E6561722C20302030B9
:100820002C203020313030252C2066726F6D28232B
:10083000356661663164292C20746F28233335397D
:1008400032333829293B0D0A6261636B67726F7519
:100850006E642D7265706561743A207265706561B1
:10086000742D783B0D0A626F726465722D636F6C34
:100870006F723A20233335393233382023316362A3
:1008800032623220233030303030303B0D0A626F1C
:10089000726465722D636F6C6F723A207267626169
:1008A00028302C203235352C203135342C20302E78
:1008B0003129207267626128302C203235352C2096
:1008C0003135342C20302E31292072676261283076
:1008D0002C203235352C203135342C20302E323539
:1008E000293B0D0A7D0D0A0D0A2E627574746F6E18
:1008F0002D64656C7B0D0A6261636B67726F756E48
:10090000642D636F6C6F723A236365313430613BE1
:100910000D0A6261636B67726F756E642D696D613C
:1009200067653A202D7765626B69742D6772616423
:1009300069656E74286C696E6561722C2030203098
:100940002C203020313030252C2066726F6D28230A
:10095000663434383438292C20746F282363653189
:1009600034306129293B0D0A6261636B67726F75D0
:100970006E642D7265706561743A20726570656190
:10098000742D783B0D0A626F726465722D636F6C13
:100990006F723A2023636531343061202342323252
:1009A00032323220233030303030303B0D0A626F2B
:1009B000726465722D636F6C6F723A207267626148
:1009C00028302C2037322C203235352C20302E3157
:1009D00029207267626128302C2037322C20323572
:1009E000352C20302E3129207267626128302C206E
:1009F00037322C203235352C20302E3235293B0D24
:100A00000A7D0D0A0D0A2E6D656E757B0D0A626FEB
:100A1000782D73697A696E673A20636F6E74656EBC
:100A2000742D626F783B0D0A77696474683A2032DE
:100A3000333770783B0D0A6865696768743A20330C
:100A40003670783B0D0A637572736F723A20706F5F
:100A5000696E7465723B20200D0A626F7264657264
:100A60003A2031707820736F6C6964202364646469
:100A70006464643B0D0A666F6E743A206E6F726D2B
:100A8000616C20313470782F33377078204172696F
:100A9000616C2C2048656C7665746963612C2073E9
:100AA000616E732D73657269663B0D0A74657874A7
:100AB0002D696E64656E743A20313270783B0D0A90
:100AC000746578742D6F766572666C6F773A206303
:100AD0006C69703B0D0A77686974652D737061638A
:100AE000653A206E6F777261703B0D0A636F6C6FB1
:100AF000723A20233030383863633B0D0A626163F9
:100B00006B67726F756E643A20236666666666660A
:100B10003B0D0A746578742D616C69676E3A206CC0
:100B20006566743B0D0A70616464696E673A2030D3
:100B300070783B0D0A6D617267696E3A202D3670D0
:100B4000782031307078202D387078203070783BE4
:100B50000D0A7D0D0A0D0A2E6D656E752D63757279
:100B600072656E747B0D0A6261636B67726F756E7E
:100B7000643A20233030383863633B0D0A626F7269
:100B80006465723A2031707820736F6C6964202339
:100B90006464646464643B0D0A636F6C6F723A2032
:100BA000236666666666663B0D0A7D20200D0A2078
:100BB000200D0A2E6D656E752D746F707B0D0A62A7
:100BC0006F726465722D7261646975733A20347056
:100BD0007820347078203020303B0D0A6D617267C8
:100BE000696E3A203070782031307078202D38705E
:100BF00078203070783B0D0A7D0D0A20200D0A2EDA
:100C00006C61796F75747B0D0A77696474683A203A
:100C1000313030253B0D0A6D617267696E3A2030C4
:100C20003B0D0A68656967743A20313030253B0D09
:100C30000A7D0D0A0D0A2E736964656261722C20AB
:100C40002E636F6E74656E747B0D0A706F736974BA
:100C5000696F6E3A206162736F6C7574653B0D0A43
:100C60007D0D0A0D0A2E736964656261727B200D29
:100C70000A746F703A203970783B0D0A6C6566749F
:100C80003A20313070783B0D0A7D0D0A0D0A2E6333
:100C90006F6E74656E747B0D0A746F703A203970D4
:100CA000783B0D0A6C6566743A2032373470783BB5
:100CB0000D0A77696474683A2037313770783B0DD4
:100CC0000A7D0D0A68727B0D0A626F726465723A62
:100CD000206E6F6E653B0D0A6261636B67726F75A4
:100CE0006E642D636F6C6F723A20726762283232C5
:100CF000392C203232392C20323239293B0D0A630B
:100D00006F6C6F723A207267622834392C2031354B
:100D1000312C20313136293B0D0A686569676874CA
:100D20003A203170783B0D0A7D0D0A3C2F7374799F
:100D30006C653E3C7469746C653ED0A3D0BFD180B5
:100D4000D0B0D0B2D0BBD0B5D0BDD0B8D0B53C2F8C
:100D50007469746C653E0D0A3C2F686561643E0DD4
:100D60000A0D0A3C626F64793E0D0A3C6469762084
:100D7000636C6173733D226C61796F7574223E0DF3
:100D80000A093C64697620636C6173733D22736960
:100D90006465626172223E090D0A09093C666F7240
:100DA0006D206D6574686F643D22676574222061F3
:100DB0006374696F6E3D222F776562312E636769B8
:100DC000223E200D0A0909093C627574746F6E2079
:100DD000747970653D227375626D69742220636C4D
:100DE0006173733D226D656E75206D656E752D7432
:100DF0006F70206D656E752D63757272656E7422ED
:100E0000206E616D653D226D61696E5F636F6E6618
:100E100069675F70616765223ED0A3D0BFD180D083
:100E2000B0D0B2D0BBD0B5D0BDD0B8D0B53C2F6219
:100E30007574746F6E3E0D0A09093C2F666F726DF2
:100E40003E090D0A09093C666F726D206D65746874
:100E50006F643D226765742220616374696F6E3D23
:100E6000222F776562322E636769223E200D0A09C0
:100E700009093C627574746F6E20747970653D2247
:100E80007375626D69742220636C6173733D226DAA
:100E9000656E7522206E616D653D226574685F70B8
:100EA000616765223E45746865726E65743C2F62A9
:100EB0007574746F6E3E0D0A09093C2F666F726D72
:100EC0003E090D0A09093C666F726D206D657468F4
:100ED0006F643D226765742220616374696F6E3DA3
:100EE000222F776562332E636769223E200D0A093F
:100EF00009093C627574746F6E20747970653D22C7
:100F00007375626D69742220636C6173733D226D29
:100F1000656E7522206E616D653D2263616C69624C
:100F20005F70616765223ED09AD0B0D0BBD0B8D098
:100F3000B1D180D0BED0B2D0BAD0B03C2F627574DF
:100F4000746F6E3E0D0A09093C2F666F726D3E0983
:100F500009090D0A093C2F6469763E0D0A093C64B3
:100F6000697620636C6173733D22636F6E74656E86
:100F700074223E09090D0A3C68723E0D0A0D0A3CB6
:100F80007020636C6173733D226831223ED0A2D021
:100F9000B5D0BAD183D189D0B8D0B520D0BDD0B02A
:100FA000D181D182D180D0BED0B9D0BAD0B83C2FB7
:100FB000703E0D0A3C666F726D206E616D65203D5E
:100FC0002022626F726465725F706172616D2220AF
:100FD0006D6574686F64203D20226765742220610E
:100FE0006374696F6E203D20222F776562312E6316
:100FF0006769223E0D0A3C7461626C652072756CF3
:1010000065733D226E6F6E65222077696474683D5A
:101010002231303025223E09090909090909090947
:10102000090D0A093C74626F64793E0D0A093C742B
:10103000723E0D0A09093C746420616C69676E3D5B
:101040002272696768742220636C6173733D227435
:1010500064223E09D0A1D182D0B0D182D0B8D1874C
:10106000D0B5D181D0BAD0BED0B520D181D0BED03C
:10107000BFD180D0BED182D0B8D0B2D0BBD0B5D095
:10108000BDD0B8D0B520D0B7D0B0D0BCD0BAD0BDCC
:10109000D183D182D18BD18520D0BAD0BED0BDD161
:1010A00082D0B0D0BAD182D0BED0B220D0B3D0B529
:1010B000D180D0BAD0BED0BDD0B02C20D0BCD09E74
:1010C000D0BC3C62723E090D0A09090909090909E7
:1010D000090909D0A1D182D0B0D182D0B8D187D0AE
:1010E000B5D181D0BAD0BED0B520D181D0BED0BFCD
:1010F000D180D0BED182D0B8D0B2D0BBD0B5D0BD17
:10110000D0B8D0B520D180D0B0D0B7D0BED0BCD070
:10111000BAD0BDD183D182D18BD18520D0BAD0BEF7
:10112000D0BDD182D0B0D0BAD182D0BED0B220D082
:10113000B3D0B5D180D0BAD0BED0BDD0B02C20D0E5
:101140009ED0BC3C62723E090D0A090909090909D1
:1011500009090909D094D0B8D181D0BFD0B5D180C8
:10116000D181D0B8D18F20D181D0BED0BFD180D095
:10117000BED182D0B8D0B2D0BBD0B5D0BDD0B8D05F
:10118000B520D0BAD0BED0BDD182D0B0D0BAD18235
:10119000D0BED0B220D0B3D0B5D180D0BAD0BED0DE
:1011A000BDD0B02C20D0BCD09ED0BC3C62723E0DD5
:1011B0000A09090909090909090909D0A1D0BED0FC
:1011C000BFD180D0BED182D0B8D0B2D0BBD0B5D044
:1011D000BDD0B8D0B520D0B8D0B7D0BED0BBD18F9D
:1011E000D186D0B8D0B82C20D09CD09ED0BC3C6248
:1011F000723E090909090909090909090D0A0909BC
:101200000909090909090909D09CD0B0D0B3D0BD9A
:10121000D0B8D182D0BDD0BED0B520D0BFD0BED046
:10122000BBD0B52C20D0BCD0A2D0BB3C62723E0D4E
:101230000A09090909090909090909D0A2D0BED07A
:10124000BA20D0BED0BFD180D0BED181D0B02C20AA
:10125000D0BCD0903C62723E0D0A09090909090907
:1012600009090909D0A7D0B0D181D182D0BED182DD
:10127000D0B020D181D0BBD0B5D0B4D0BED0B2D008
:10128000B0D0BDD0B8D18F20D182D0B5D181D1829C
:10129000D0BED0B2D18BD18520D0B8D0BCD0BFD1F8
:1012A00083D0BBD18CD181D0BED0B22C20D093D1F1
:1012B000863C62723E0D0A090909090909090909F2
:1012C00009D0A2D0BED0BA20D0BAD0B0D182D183BA
:1012D000D188D0BAD0B82C20D0BCD0BAD0903C6243
:1012E000723E090909090909090909090D0A0909CB
:1012F0000909090909090909D0A1D187D0B5D18205
:10130000D187D0B8D0BA20D182D0B5D181D182D006
:10131000BED0B220D0B3D0B5D180D0BAD0BED0BD6F
:10132000D0B03C62723E0D0A090909090909090990
:101330000909D0A1D187D0B5D182D187D0B8D0BA90
:1013400020D181D180D0B0D0B1D0B0D182D18BD0DA
:10135000B2D0B0D0BDD0B8D18F20D0B3D0B5D1806D
:10136000D0BAD0BED0BDD0B03C62723E0D0A0909E1
:101370000909090909090909D092D180D0B5D0BC61
:10138000D18F20D0BFD0B5D180D0B5D185D0BED03F
:10139000B4D0BDD0BED0B3D0BE20D0BFD180D0BEDF
:1013A000D186D0B5D181D181D0B02C20D0BCD0BADB
:1013B000D1813C62723E0D0A09090909090909092E
:1013C0000909D092D0B5D180D181D0B8D18F20D0A9
:1013D000BFD180D0BED0B3D180D0B0D0BCD0BCD033
:1013E000BDD0BED0B3D0BE20D0BED0B1D0B5D1819B
:1013F000D0BFD0B5D187D0B5D0BDD0B8D18F0D0A70
:1014000009093C2F74643E0D0A09093C746420618B
:101410006C69676E3D226C6566742220636C617333
:10142000733D227464223E3C6F7574707574207431
:101430007970653D2274657874223E3C7072652037
:10144000636C6173733D2270223E3C212D2D237409
:101450002D2D3E203C2F7072653E3C2F74643E095A
:101460000909090909090D0A093C2F74723E090985
:10147000090909090D0A093C2F74626F64793E0D50
:101480000A3C2F7461626C653E0D0A3C2F666F72D8
:101490006D3E0D0A0D0A3C68723E0D0A3C702063D9
:1014A0006C6173733D226831223ED092D18BD0B1F2
:1014B000D180D0B0D182D18C20D182D0BED0BA2000
:1014C000D0BED0BFD180D0BED181D0B03C2F703E35
:1014D0000D0A3C666F726D206E616D65203D2022A5
:1014E0007365745F706172616D22206D6574686FE1
:1014F00064203D20226765742220616374696F6EE9
:10150000203D20222F776562312E636769223E0DD0
:101510000A3C7461626C652072756C65733D226E65
:101520006F6E65222077696474683D223130302502
:10153000223E0D0A093C74626F64793E09090D0A66
:1015400009093C74723E0D0A09093C746420636CFD
:101550006173733D2274642220616C69676E3D2261
:101560006C656674222077696474683D2232302588
:10157000223ED0A2D0BED0BA3A3C2F74643E0D0AAF
:101580000909093C74643E3C703E3C73656C6563BC
:10159000742069643D22736F666C6F7722206E61E0
:1015A0006D653D227273637572722220776964746F
:1015B000683D22333025223E0D0A0909093C6F702F
:1015C00074696F6E2064697361626C65643ED09269
:1015D000D18BD0B1D180D0B0D182D18C3C2F6F7063
:1015E00074696F6E3E0D0A0909093C6F7074696F6A
:1015F0006E2076616C75653D223122206E616D65CD
:101600003D22706172697479223E3120D0BCD09045
:101610003C2F6F7074696F6E3E0909090909090949
:10162000090909090D0A0909093C6F7074696F6E8F
:101630002076616C75653D22353022206E616D65C6
:101640003D22706172697479223E353020D0BCD061
:10165000903C2F6F7074696F6E3E0D0A0909093C4A
:101660006F7074696F6E2076616C75653D223530E0
:101670003022206E616D653D22706172697479223D
:101680003E35303020D0BCD0903C2F6F7074696FE5
:101690006E3E0909090909090D0A09093C2F7365FC
:1016A0006C6563743E3C2F703E0D0A0909093C2F9E
:1016B00074643E0D0A09093C746420616C69676EAC
:1016C0003D226C656674222077696474683D22351A
:1016D0003025223E3C627574746F6E20636C6173BA
:1016E000733D22627574746F6E20627574746F6ED0
:1016F0002D736176652220747970653D2273756261
:101700006D6974222076616C75653D225465737431
:1017100022206E616D653D22735F72736375727214
:10172000223ED0A3D181D182D0B0D0BDD0BED0B224
:10173000D0B8D182D18C3C2F627574746F6E3E3CF0
:101740002F74643E0D0A093C2F74723E090D0A097C
:101750003C2F74626F64793E0909090D0A3C2F74AD
:10176000626F64793E0D0A3C2F7461626C653E0DB8
:101770000A3C2F666F726D3E0D0A0D0A3C68723E80
:101780000D0A3C7020636C6173733D226831223E08
:10179000D0A3D181D182D0B0D0BDD0BED0B2D0B88C
:1017A000D182D18C20D187D0B0D181D182D0BED18D
:1017B00082D18320D181D0BBD0B5D0B4D0BED0B23D
:1017C000D0B0D0BDD0B8D18F20D182D0B5D181D109
:1017D00082D0BED0B2D18BD18520D0B8D0BCD0BF02
:1017E000D183D0BBD18CD181D0BED0B23C2F703E42
:1017F0000D0A3C666F726D206E616D653D227772D9
:101800006974655F626F7264657222206D657468C9
:101810006F643D226765742220616374696F6E3D59
:10182000222F776562312E636769223E0D0A3C7470
:1018300061626C652072756C65733D226E6F6E65BA
:10184000222077696474683D2231303025223E0DB4
:101850000A3C74626F64793E0D0A093C74723E0D55
:101860000A09093C74642020636C6173733D22741F
:10187000642220616C69676E3D226C656674223E4D
:10188000D0A7D0B0D181D182D0BED182D0B02C200F
:10189000D093D1863A3C2F74643E0D0A09093C74FA
:1018A000642020616C69676E3D226C65667422203D
:1018B0003E203C696E707574206E616D653D2266D8
:1018C000726571222073697A653D22313622206D5E
:1018D00061786C656E6774683D2231362220636CD6
:1018E0006173733D22696E707574222076616C7528
:1018F00065203D20223530223E203C2F74643E0D71
:101900000A09093C74643E3C627574746F6E2074FD
:101910007970653D227375626D69742220206E6155
:101920006D653D2273667265712220616C69676E18
:101930003D2263656E7465722220636C6173733D32
:1019400022627574746F6E20627574746F6E2D737D
:10195000617665223ED0A3D181D182D0B0D0BDD0F6
:10196000BED0B2D0B8D182D18C3C2F627574746F66
:101970006E3E3C2F74643E09090909090D0A093CB1
:101980002F74723E0D0A3C2F74626F64793E0D0A0B
:101990003C2F7461626C653E0D0A3C62723E0D0A1A
:1019A0003C7020636C6173733D2270223ED094D0F2
:1019B000B8D0B0D0BFD0B0D0B7D0BED0BD20D0B797
:1019C000D0B0D0B4D0B0D0BDD0B8D18F20D187D0D6
:1019D000B0D181D182D0BED18220D181D0BBD0B54F
:1019E000D0B4D0BED0B2D0B0D0BDD0B8D18F20D17D
:1019F00082D0B5D181D182D0BED0B2D18BD1852059
:101A0000D0B8D0BCD0BFD183D0BBD18CD181D0BE17
:101A1000D0B220312E2E2E3130303020D093D186CE
:101A20003C2F703E0D0A3C2F666F726D3E090D0A09
:101A30000D0A3C68723E0D0A3C7020636C61737342
:101A40003D226831223ED0A3D181D182D0B0D0BD19
:101A5000D0BED0B2D0B8D182D18C20D182D0BED06D
:101A6000BA20D0BAD0B0D182D183D188D0BAD0B880
:101A70003C2F703E0D0A3C666F726D206E616D6585
:101A80003D2277726974655F626F726465722220AD
:101A90006D6574686F643D226765742220616374AC
:101AA000696F6E3D222F776562312E636769223E32
:101AB0000D0A3C7461626C652072756C65733D2221
:101AC0006E6F6E65222077696474683D2231303014
:101AD00025223E0D0A3C74626F64793E0D0A093C72
:101AE00074723E0D0A09093C74642020636C6173B2
:101AF000733D2274642220616C69676E3D226C65BF
:101B00006674223ED0A2D0BED0BA2C20D0BCD0BAAF
:101B1000D0903A3C2F74643E0D0A09093C7464204D
:101B200020616C69676E3D226C65667422203E20E0
:101B30003C696E707574206E616D653D22636F69DE
:101B40006C63757272222073697A653D2231362288
:101B5000206D61786C656E6774683D223136222095
:101B6000636C6173733D22696E70757422207661B7
:101B70006C7565203D202235303030223E203C2FD0
:101B800074643E0D0A09093C74643E3C62757474C9
:101B90006F6E20747970653D227375626D69742271
:101BA00020206E616D653D22735F636F696C6375A4
:101BB00072722220616C69676E3D2263656E746586
:101BC000722220636C6173733D22627574746F6E50
:101BD00020627574746F6E2D73617665223ED0A39A
:101BE000D181D182D0B0D0BDD0BED0B2D0B8D18258
:101BF000D18C3C2F627574746F6E3E3C2F74643EC2
:101C000009090909090D0A093C2F74723E0D0A3CA5
:101C10002F74626F64793E0D0A3C2F7461626C65AB
:101C20003E0D0A3C62723E0D0A3C7020636C61738B
:101C3000733D2270223ED09CD0B0D0BAD181D0B8B2
:101C4000D0BCD0B0D0BBD18CD0BDD18BD0B920D13D
:101C500082D0BED0BA20D0BAD0B0D182D183D188C0
:101C6000D0BAD0B820343030303020D0BCD0BAD048
:101C7000903C2F703E0D0A3C2F666F726D3E090D31
:101C80000A0D0A0D0A3C68723E0D0A3C7020636C16
:101C90006173733D226831223ED0A2D0B5D181D18B
:101CA00082D0B8D180D0BED0B2D0B0D0BDD0B8D064
:101CB000B53C2F703E0D0A3C7461626C65207275F4
:101CC0006C65733D226E6F6E65222077696474685F
:101CD0003D2231303025223E0D0A3C74626F64791A
:101CE0003E0D0A093C74723E0D0A09093C74643EBB
:101CF0000D0A09093C666F726D206D6574686F642A
:101D00003D226765742220616374696F6E3D222FE6
:101D1000776562312E636769223E200D0A09090941
:101D20003C627574746F6E20747970653D227375B2
:101D3000626D69742220636C6173733D22627574F5
:101D4000746F6E20627574746F6E2D736176652288
:101D5000206E616D653D2273696E676C655F74739B
:101D6000747374617274223ED097D0B0D0BFD183A7
:101D7000D181D182D0B8D182D18C20D0BED0B4D084
:101D8000BDD0BED0BAD180D0B0D182D0BDD0BE3C03
:101D90002F627574746F6E3E200D0A09093C2F6620
:101DA0006F726D3E0D0A09093C2F74643E0D0A09DD
:101DB000093C74643E0D0A09093C666F726D206D22
:101DC0006574686F643D226765742220616374697D
:101DD0006F6E3D222F776562312E636769223E2048
:101DE0000D0A0909093C627574746F6E207479706C
:101DF000653D227375626D69742220636C61737333
:101E00003D22627574746F6E20627574746F6E2DEE
:101E10007361766522206E616D653D226379635F33
:101E20007473747374617274223ED097D0B0D0BF53
:101E3000D183D181D182D0B8D182D18C20D186D02A
:101E4000B8D0BAD0BBD0B8D187D0B5D181D0BAD0B4
:101E5000B83C2F627574746F6E3E200D0A09093C00
:101E60002F666F726D3E0D0A09093C2F74643E0D9A
:101E70000A09093C74643E0D0A09093C666F726DDB
:101E8000206D6574686F643D22676574222061630C
:101E900074696F6E3D222F776562312E6367692208
:101EA0003E200D0A0909093C627574746F6E207436
:101EB0007970653D227375626D69742220636C616F
:101EC00073733D22627574746F6E20627574746FE3
:101ED0006E2D7361766522206E616D653D2263799A
:101EE000635F74737473746F70223ED092D18BD021
:101EF000BAD0BBD18ED187D0B8D182D18C3C2F62E1
:101F00007574746F6E3E200D0A09093C2F666F725E
:101F10006D3E0D0A09093C2F74643E090909090D3B
:101F20000A093C2F74723E090D0A093C74723E0D79
:101F30000A09093C74643E0D0A09093C666F726D1A
:101F4000206D6574686F643D22676574222061634B
:101F500074696F6E3D222F776562312E6367692247
:101F60003E200D0A0909093C627574746F6E207475
:101F70007970653D227375626D69742220636C61AE
:101F800073733D22627574746F6E20627574746F22
:101F90006E2D7361766522206E616D653D226973D9
:101FA0006F5F7473747374617274223ED0A2D0B583
:101FB000D181D182D0B8D180D0BED0B2D0B0D0BD86
:101FC000D0B8D0B520D0B8D0B7D0BED0BBD18FD18B
:101FD00086D0B8D0B83C2F627574746F6E3E200DF9
:101FE0000A09093C2F666F726D3E0D0A09093C2FE4
:101FF00074643E09090D0A09093C74643E0D0A091E
:10200000093C666F726D206D6574686F643D226770
:1020100065742220616374696F6E3D222F7765625B
:10202000312E636769223E200D0A0909093C627559
:1020300074746F6E20747970653D227375626D697A
:10204000742220636C6173733D22627574746F6EC9
:1020500020627574746F6E2D7361766522206E61D7
:102060006D653D22636F696C6F6E223ED092D0BA6F
:10207000D0BBD18ED187D0B8D182D18C20D0B3D073
:10208000B5D180D0BAD0BED0BD20D0BFD0BED18116
:10209000D182D0BED18FD0BDD0BDD0BE3C2F627515
:1020A00074746F6E3E200D0A09093C2F666F726DC5
:1020B0003E0D0A09093C2F74643E0909090D0A09FD
:1020C0003C2F74723E090D0A093C74723E0D0A09D8
:1020D000093C74643E0D0A09093C666F726D206DFF
:1020E0006574686F643D226765742220616374695A
:1020F0006F6E3D222F776562312E636769223E2025
:102100000D0A0909093C627574746F6E2074797048
:10211000653D227375626D69742220636C6173730F
:102120003D22627574746F6E20627574746F6E2DCB
:102130007361766522206E616D653D226D61675F1A
:102140007473747374617274223ED0A2D0B5D1815D
:10215000D182D0B8D180D0BED0B2D0B0D0BDD0B8AE
:10216000D0B520D0BFD0BED0BFD0BBD0B0D0B2D0C1
:10217000BAD0B03C2F627574746F6E3E200D0A09A0
:10218000093C2F666F726D3E0D0A09093C2F74647D
:102190003E09090D0A093C2F74723E0909090D0A0E
:1021A000093C2F74723E0D0A3C2F74626F64793EB5
:1021B0000D0A3C2F7461626C653E0D0A3C70206311
:1021C0006C6173733D2270223ED094D0BBD18F20BE
:1021D000D0B0D0B2D182D0BED0BAD0B0D0BBD0B8FF
:1021E000D0B1D180D0BED0B2D0BAD0B820D0B7D084
:1021F000B0D0BCD0BAD0BDD0B8D182D0B520D0B884
:10220000D0B7D0BCD0B5D180D0B8D182D0B5D0BBFA
:10221000D18CD0BDD18BD0B520D189D183D0BFD1C5
:102220008B2C20D0BFD0BED0B4D0BAD0BBD18ED1F1
:1022300087D0B0D0B5D0BCD18BD0B520D0BA20D00B
:10224000B3D0B5D180D0BAD0BED0BDD1832C20D0F0
:10225000BCD0B5D0B6D0B4D18320D181D0BED0B15E
:10226000D0BED0B93C2F703E0D0A0D0A3C68723EBC
:102270000D0A0D0A0D0A3C7020636C6173733D22D8
:102280006831223ED094D0B0D0BDD0BDD18BD0B576
:102290003C2F703E0D0A3C7461626C652072756C57
:1022A00065733D226E6F6E65222077696474683DA8
:1022B0002231303025223E0D0A3C74626F64793E33
:1022C0000D0A093C74723E0D0A093C666F726D205E
:1022D0006D6574686F643D22676574222061637464
:1022E000696F6E3D222F776562312E636769223EEA
:1022F000200D0A09093C627574746F6E2074797040
:10230000653D227375626D69742220636C6173731D
:102310003D22627574746F6E20627574746F6E2DD9
:102320007361766522206E616D653D2272645F6423
:10233000617461223ED0A1D187D0B8D182D0B0D112
:1023400082D18C20D0B4D0B0D0BDD0BDD18BD0B58F
:102350003C2F627574746F6E3E200D0A093C2F6627
:102360006F726D3E0D0A093C2F74723E090D0A3CD6
:102370002F74626F64793E0D0A3C2F7461626C6544
:102380003E0D0A0D0A0D0A3C2F6469763E0D0A3C8B
:102390002F6469763E0D0A3C2F626F64793E0D0A08
:1023A0003C2F68746D6C3E002F636F6E6669675FCB
:1023B0006574682E7368746D6C0000004854545046
:1023C0002F312E3020323030204F4B0D0A536572A2
:1023D0007665723A206C7749502F312E332E31209A
:1023E00028687474703A2F2F736176616E6E61681D
:1023F0002E6E6F6E676E752E6F72672F70726F6ABA
:10240000656374732F6C776970290D0A436F6E745E
:10241000656E742D747970653A20746578742F68D0
:10242000746D6C0D0A457870697265733A20467256
:10243000692C203130204170722032303038203108
:10244000343A30303A303020474D540D0A507261E2
:10245000676D613A206E6F2D63616368650D0A0DCB
:102460000AEFBBBF203C21444F43545950452048FC
:10247000544D4C205055424C494320222D2F2F576C
:1024800033432F2F4454442048544D4C20342E3095
:1024900031205472616E736974696F6E616C2F2F95
:1024A000454E223E0D0A3C68746D6C3E3C68656189
:1024B000643E0D0A3C6D65746120636861727365EA
:1024C000743D227574662D38223E0D0A3C73747972
:1024D0006C653E0D0A2E68317B0D0A666F6E743A8C
:1024E000206E6F726D616C206E6F726D616C203248
:1024F0003270782F3339707820417269616C2C20EA
:1025000048656C7665746963612C2073616E732D08
:1025100073657269663B0D0A7D0D0A0D0A2E707B8C
:102520000D0A666F6E743A206E6F726D616C2031A9
:1025300034707820417269616C2C2048656C766536
:10254000746963612C2073616E732D7365726966A3
:102550003B0D0A7D0D0A0D0A2E696E7075747B0D98
:102560000A646973706C61793A20696E6C696E6592
:102570002D626C6F636B3B0D0A626F782D73697A05
:10258000696E673A20636F6E74656E742D626F7842
:102590003B0D0A70616464696E673A20357078207B
:1025A000313070783B0D0A626F726465723A203187
:1025B000707820736F6C69642023623762376237EA
:1025C0003B0D0A626F726465722D72616469757386
:1025D0003A203470783B0D0A666F6E743A206E6F45
:1025E000726D616C203134707820417269616C2C9D
:1025F0002048656C7665746963612C2073616E7325
:102600002D73657269663B0D0A746578742D6F765B
:102610006572666C6F773A20636C69703B0D0A6275
:1026200061636B67726F756E643A207267626128CE
:102630003235322C3235322C3235322C31293B0DA9
:102640000A746578742D736861646F773A2031700D
:1026500078203170782030207267626128323535F9
:102660002C3235352C3235352C302E3636293B0D73
:102670000A7472616E736974696F6E3A20616C6C72
:10268000203230306D732063756269632D62657A24
:1026900069657228302E34322C20302C20302E35B3
:1026A000382C2031293B0D0A7D0D0A0D0A2E746449
:1026B0007B0D0A70616464696E673A20313070780E
:1026C0003B0D0A70616464696E672D726967687496
:1026D0003A20323070783B0D0A666F6E743A206E85
:1026E0006F726D616C203134707820417269616C59
:1026F0002C2048656C7665746963612C2073616E6B
:10270000732D73657269663B0D0A7D0D0A0D0A2EE5
:10271000627574746F6E2C202E746573742C202E69
:1027200064656C7B0D0A666F6E743A206E6F726D15
:10273000616C206E6F726D616C20313470782F3156
:1027400034707820417269616C2C2048656C766524
:10275000746963612C2073616E732D736572696691
:102760003B0D0A0D0A626F726465722D72616469B5
:1027700075733A203470783B0D0A636F6C6F723A50
:1027800020236666663B0D0A70616464696E673A71
:102790002036707820313270783B0D0A7465787479
:1027A0002D736861646F773A2031707820317078CA
:1027B0002030207267626128302C302C302C2E356E
:1027C000293B0D0A626F782D736861646F773A2038
:1027D000696E73657420302031707820302030208D
:1027E00072676261283235352C3235352C323535F9
:1027F0002C2E35293B0D0A636F6C6F723A202366CD
:1028000066666666663B0D0A746578742D7368614A
:10281000646F773A2030202D317078203020726735
:10282000626128302C20302C20302C20302E323584
:10283000293B0D0A626F782D736861646F773A20C7
:10284000696E736574203020317078203020726793
:102850006261283235352C203235352C2032353521
:102860002C20302E32292C203020317078203270EC
:1028700078207267626128302C20302C20302C2088
:10288000302E3035293B0D0A7D0D0A0D0A2E62755A
:1028900074746F6E2D736176657B0D0A6261636B74
:1028A00067726F756E642D636F6C6F723A202330A0
:1028B00030383863633B0D0A6261636B67726F7512
:1028C0006E642D696D6167653A202D7765626B696D
:1028D000742D6772616469656E74286C696E6561D8
:1028E000722C203020302C203020313030252C200C
:1028F00066726F6D2823333338346363292C207458
:102900006F282330303438636329293B0D0A626114
:10291000636B67726F756E642D7265706561743A72
:10292000207265706561742D783B0D0A626F726468
:1029300065722D636F6C6F723A20233030383863C4
:1029400063202330303838636320233030383863D5
:10295000633B0D0A626F726465722D636F6C6F72F8
:102960003A207267626128302C2037322C203235B1
:10297000352C20302E3129207267626128302C20BE
:1029800037322C203235352C20302E3129207267F9
:10299000626128302C20302C20302C20302E323513
:1029A000293B0D0A7D0D0A0D0A2E627574746F6E37
:1029B0002D746573747B0D0A6261636B67726F754A
:1029C0006E642D636F6C6F723A233335393233384E
:1029D0003B0D0A6261636B67726F756E642D696D82
:1029E0006167653A202D7765626B69742D67726146
:1029F0006469656E74286C696E6561722C20302084
:102A0000302C203020313030252C2066726F6D281C
:102A100023356661663164292C20746F2823333591
:102A20003932333829293B0D0A6261636B67726F53
:102A3000756E642D7265706561743A20726570659B
:102A400061742D783B0D0A626F726465722D636F3D
:102A50006C6F723A20233335393233382023316397
:102A60006232623220233030303030303B0D0A6227
:102A70006F726465722D636F6C6F723A2072676259
:102A80006128302C203235352C203135342C203043
:102A90002E3129207267626128302C203235352C86
:102AA000203135342C20302E312920726762612884
:102AB000302C203235352C203135342C20302E323C
:102AC00035293B0D0A7D0D0A0D0A2E627574746F4F
:102AD0006E2D64656C7B0D0A6261636B67726F7546
:102AE0006E642D636F6C6F723A23636531343061AD
:102AF0003B0D0A6261636B67726F756E642D696D61
:102B00006167653A202D7765626B69742D67726124
:102B10006469656E74286C696E6561722C20302062
:102B2000302C203020313030252C2066726F6D28FB
:102B300023663434383438292C20746F2823636595
:102B40003134306129293B0D0A6261636B67726F12
:102B5000756E642D7265706561743A20726570657A
:102B600061742D783B0D0A626F726465722D636F1C
:102B70006C6F723A20236365313430612023423216
:102B80003232323220233030303030303B0D0A6266
:102B90006F726465722D636F6C6F723A2072676238
:102BA0006128302C2037322C203235352C20302E25
:102BB0003129207267626128302C2037322C203274
:102BC00035352C20302E3129207267626128302C57
:102BD0002037322C203235352C20302E3235293B0F
:102BE0000D0A7D0D0A0D0A2E6D656E757B0D0A624C
:102BF0006F782D73697A696E673A20636F6E7465BA
:102C00006E742D626F783B0D0A77696474683A20A0
:102C100032333770783B0D0A6865696768743A200B
:102C2000333670783B0D0A637572736F723A207099
:102C30006F696E7465723B20200D0A626F72646565
:102C4000723A2031707820736F6C69642023646459
:102C5000646464643B0D0A666F6E743A206E6F7232
:102C60006D616C20313470782F3337707820417269
:102C700069616C2C2048656C7665746963612C20F1
:102C800073616E732D73657269663B0D0A746578A6
:102C9000742D696E64656E743A20313270783B0D24
:102CA0000A746578742D6F766572666C6F773A205A
:102CB000636C69703B0D0A77686974652D73706188
:102CC00063653A206E6F777261703B0D0A636F6CBB
:102CD0006F723A20233030383863633B0D0A6261EB
:102CE000636B67726F756E643A202366666666660C
:102CF000663B0D0A746578742D616C69676E3A20C5
:102D00006C6566743B0D0A70616464696E673A2095
:102D10003070783B0D0A6D617267696E3A202D360E
:102D200070782031307078202D38707820307078AD
:102D30003B0D0A7D0D0A0D0A2E6D656E752D6375AE
:102D40007272656E747B0D0A6261636B67726F7578
:102D50006E643A20233030383863633B0D0A626F6B
:102D6000726465723A2031707820736F6C696420E8
:102D7000236464646464643B0D0A636F6C6F723A2D
:102D800020236666666666663B0D0A7D20200D0A76
:102D900020200D0A2E6D656E752D746F707B0D0AE7
:102DA000626F726465722D7261646975733A203462
:102DB000707820347078203020303B0D0A6D6172BD
:102DC00067696E3A203070782031307078202D3865
:102DD0007078203070783B0D0A7D0D0A20200D0A96
:102DE0002E6C61796F75747B0D0A77696474683A2B
:102DF00020313030253B0D0A6D617267696E3A20D3
:102E0000303B0D0A68656967743A20313030253BE4
:102E10000D0A7D0D0A0D0A2E736964656261722CBC
:102E2000202E636F6E74656E747B0D0A706F73690C
:102E300074696F6E3A206162736F6C7574653B0DD7
:102E40000A7D0D0A0D0A2E736964656261727B202A
:102E50000D0A746F703A203970783B0D0A6C656604
:102E6000743A20313070783B0D0A7D0D0A0D0A2E20
:102E7000636F6E74656E747B0D0A746F703A2039DF
:102E800070783B0D0A6C6566743A2032373470787E
:102E90003B0D0A77696474683A2037313770783BA4
:102EA0000D0A7D0D0A68727B0D0A626F726465728D
:102EB0003A206E6F6E653B0D0A6261636B67726FDD
:102EC000756E642D636F6C6F723A20726762283280
:102ED00032392C203232392C20323239293B0D0A3A
:102EE000636F6C6F723A207267622834392C20311C
:102EF00035312C20313136293B0D0A686569676808
:102F0000743A203170783B0D0A7D0D0A3C2F7374A2
:102F1000796C653E3C7469746C653E457468657295
:102F20006E657420706172616D65746572733C2F9B
:102F30007469746C653E0D0A3C2F686561643E0DD2
:102F40000A0D0A3C626F64793E0D0A3C6469762082
:102F5000636C6173733D226C61796F7574223E0DF1
:102F60000A093C64697620636C6173733D2273695E
:102F70006465626172223E090D0A09093C666F723E
:102F80006D206D6574686F643D22676574222061F1
:102F90006374696F6E3D222F776562312E636769B6
:102FA000223E200D0A0909093C627574746F6E2077
:102FB000747970653D227375626D69742220636C4B
:102FC0006173733D226D656E7522206E616D653D86
:102FD000226D61696E5F636F6E6669675F706167BE
:102FE00065223ED0A3D0BFD180D0B0D0B2D0BBD06C
:102FF000B5D0BDD0B8D0B53C2F627574746F6E3E3D
:103000000D0A09093C2F666F726D3E090D0A090908
:103010003C666F726D206D6574686F643D226765F4
:10302000742220616374696F6E3D222F776562326E
:103030002E636769223E200D0A0909093C627574F6
:10304000746F6E20747970653D227375626D69745A
:103050002220636C6173733D226D656E75206D6512
:103060006E752D746F70206D656E752D637572723F
:10307000656E7422206E616D653D226574685F70B7
:10308000616765223E45746865726E65743C2F62A7
:103090007574746F6E3E0D0A09093C2F666F726D70
:1030A0003E090D0A09093C666F726D206D657468F2
:1030B0006F643D226765742220616374696F6E3DA1
:1030C000222F776562332E636769223E200D0A093D
:1030D00009093C627574746F6E20747970653D22C5
:1030E0007375626D69742220636C6173733D226D28
:1030F000656E7522206E616D653D2263616C69624B
:103100005F70616765223ED09AD0B0D0BBD0B8D096
:10311000B1D180D0BED0B2D0BAD0B03C2F627574DD
:10312000746F6E3E0D0A09093C2F666F726D3E0981
:1031300009090D0A093C2F6469763E0D0A093C64B1
:10314000697620636C6173733D22636F6E74656E84
:1031500074223E0D0A3C68723E0D0A0D0A3C702036
:10316000636C6173733D226831223E20D0A2D0B5DA
:10317000D0BAD183D189D0B8D0B520D0BDD0B0D10C
:1031800081D182D180D0BED0B9D0BAD0B820457418
:103190006865726E65743C2F703E0D0A3C666F72F6
:1031A0006D206E616D65203D2022726561645F70E7
:1031B0006172616D5F65746822206D6574686F640B
:1031C000203D20226765742220616374696F6E2040
:1031D0003D20222F776562322E636769223E0D0AF9
:1031E0003C7461626C652072756C65733D226E6F14
:1031F0006E65222077696474683D22313030252263
:103200003E090909090909090909090D0A093C7456
:10321000626F64793E0D0A093C74723E0D0A090919
:103220003C746420616C69676E3D227269676874E2
:103230002220636C6173733D227464223E094950FD
:1032400020D0B0D0B4D180D0B5D1813C62723E0DD7
:103250000A09090909090909090909D0A8D0BBD136
:103260008ED0B73C62723E0D0A09090909090909A5
:10327000090909D09CD0B0D181D0BAD0B020D0BF3C
:10328000D0BED0B4D181D0B5D182D0B83C62723E2C
:103290000D0A090909090909090909094D414320CC
:1032A000D0B0D0B4D180D0B5D181090909090909BC
:1032B000090909090D0A09093C2F74643E09090925
:1032C0000909090909090D0A09093C746420616C9E
:1032D00069676E3D226C6566742220636C6173734E
:1032E0003D227464223E3C6F75747075742074794D
:1032F00070653D2274657874223E203C70726520B2
:10330000636C6173733D2270223E3C212D2D23742A
:103310002D2D3E203C2F7072653E3C2F74643E097B
:103320000909090909090D0A093C2F74723E0909A6
:10333000090909090D0A093C2F74626F64793E0D71
:103340000A3C2F7461626C653E0D0A3C2F666F72F9
:103350006D3E0D0A0D0A0D0A3C68723E0D0A3C7066
:1033600020636C6173733D226831223E20D09DD072
:10337000B0D181D182D180D0BED0B9D0BAD0B02066
:10338000D0BFD0B0D180D0B0D0BCD0B5D182D180A8
:10339000D0BED0B22045746865726E65743C2F70E3
:1033A0003E0D0A3C666F726D206E616D65203D209A
:1033B000227365745F706172616D22206D6574683F
:1033C0006F64203D20226765742220616374696FF9
:1033D0006E203D20222F776562322E636769223E80
:1033E0000D0A3C7020636C6173733D2270223E2095
:1033F000D09FD0BE20D183D0BCD0BED0BBD187D08F
:10340000B0D0BDD0B8D18E20D0B8D181D0BFD0BE81
:10341000D0BBD18CD0B7D183D0B5D182D181D18F5F
:10342000204D414320D0B0D0B4D180D0B5D1812C33
:1034300020D183D181D182D0B0D0BDD0BED0B2D086
:10344000BBD0B5D0BDD0BDD18BD0B920D0BDD0B010
:1034500020D0B7D0B0D0B2D0BED0B4D0B53C2F7051
:103460003E0D0A3C7461626C652072756C65733D3B
:10347000226E6F6E65222077696474683D22313058
:103480003025223E0D0A3C74626F64793E090D0AB4
:10349000093C74723E0D0A09093C746420636C6136
:1034A00073733D2274642220616C69676E3D2272E1
:1034B00069676874222077696474683D2233302517
:1034C000223E4D414320D0B0D0B4D180D0B5D1817F
:1034D0003A3C2F74643E09090D0A09093C746420C2
:1034E000616C69676E3D226C656674223E3C696E54
:1034F000707574206E616D653D226D6163616464F9
:103500007230222073697A653D223122206D617804
:103510006C656E6774683D22332220747970653D56
:103520002274657874222076616C7565203D2022B6
:1035300031362220636C6173733D22696E7075743D
:10354000223E3C2F74643E0D0A09093C74642061DC
:103550006C69676E3D226C656674223E3C696E70D4
:103560007574206E616D653D226D61636164647286
:1035700031222073697A653D223122206D61786C99
:10358000656E6774683D22332220747970653D2230
:1035900074657874222076616C7565203D20223137
:1035A00039352220636C6173733D22696E707574C6
:1035B000223E3C2F74643E0D0A09093C746420616C
:1035C0006C69676E3D226C656674223E3C696E7064
:1035D0007574206E616D653D226D61636164647216
:1035E00032222073697A653D223122206D61786C28
:1035F000656E6774683D22332220747970653D22C0
:1036000074657874222076616C7565203D202231C6
:1036100032332220636C6173733D22696E7075745E
:10362000223E3C2F74643E0D0A09093C74642061FB
:103630006C69676E3D226C656674223E3C696E70F3
:103640007574206E616D653D226D616361646472A5
:1036500033222073697A653D223122206D61786CB6
:10366000656E6774683D22332220747970653D224F
:1036700074657874222076616C7565203D20223156
:10368000362220636C6173733D22696E70757422FB
:103690003E3C2F74643E09090909090D0A09093CD9
:1036A000746420616C69676E3D226C656674223EAD
:1036B0003C696E707574206E616D653D226D61634D
:1036C0006164647234222073697A653D223122205C
:1036D0006D61786C656E6774683D22332220747961
:1036E00070653D2274657874222076616C75652062
:1036F0003D202231362220636C6173733D22696E56
:10370000707574223E3C2F74643E09090909090D45
:103710000A09093C746420616C69676E3D226C651E
:103720006674223E3C696E707574206E616D653DF5
:10373000226D61636164647235222073697A653D2C
:10374000223122206D61786C656E6774683D22338A
:103750002220747970653D22746578742220766128
:103760006C7565203D202231362220636C617373B5
:103770003D22696E707574223E3C2F74643E090DC3
:103780000A093C2F74723E0D0A093C74723E0D0A00
:1037900009093C74642077696474683D22333025DC
:1037A000223E3C2F74643E0D0A09093C746420617A
:1037B0006C69676E3D226C6566742220636F6C7362
:1037C00070616E3D2236223E3C627574746F6E20CD
:1037D000636C6173733D22627574746F6E206275E1
:1037E00074746F6E2D736176652220747970653DF7
:1037F000227375626D6974222076616C75653D2255
:103800005465737422206E616D653D226574685F36
:10381000736D6163223ED0A1D0BED185D180D0B07E
:10382000D0BDD0B8D182D18C3C2F627574746F6ECC
:103830003E3C2F74643E0D0A093C2F74723E0D0A03
:103840003C2F74626F64793E0D0A3C2F7461626C88
:10385000653E0D0A3C2F666F726D3E0D0A3C62722A
:103860003E0D0A0D0A3C666F726D206E616D65201B
:103870003D20227365745F706172616D22206D65F9
:1038800074686F64203D2022676574222061637430
:10389000696F6E203D20222F776562322E63676943
:1038A000223E0D0A3C7461626C65202072756C6565
:1038B000733D226E6F6E65222077696474683D22C5
:1038C0003130302522203E0D0A3C74626F64793E0F
:1038D0000D0A093C74723E0D0A09093C74642063A8
:1038E0006C6173733D2274642220616C69676E3D64
:1038F000227269676874223E495020D0B0D0B4D19A
:1039000080D0B5D1813A3C2F74643E09090D0A0973
:10391000093C746420616C69676E3D226C65667455
:10392000223E3C696E707574206E616D653D226447
:1039300065765F69705F616430222073697A653DE6
:10394000223322206D61786C656E6774683D223386
:103950002220747970653D22746578742220636C2E
:103960006173733D22696E707574223E3C2F7464DE
:103970003E0D0A09093C746420616C69676E3D2242
:103980006C656674223E3C696E707574206E616D64
:10399000653D226465765F69705F616431222073E2
:1039A000697A653D223322206D61786C656E67749B
:1039B000683D22332220747970653D2274657874E5
:1039C0002220636C6173733D22696E707574223EB0
:1039D0003C2F74643E0D0A09093C746420616C69D3
:1039E000676E3D226C656674223E3C696E7075742C
:1039F000206E616D653D226465765F69705F61640C
:103A000032222073697A653D223322206D61786C01
:103A1000656E6774683D22332220747970653D229B
:103A2000746578742220636C6173733D22696E70D3
:103A30007574223E3C2F74643E0D0A09093C74647F
:103A400020616C69676E3D226C656674223E3C693C
:103A50006E707574206E616D653D226465765F6978
:103A6000705F616433222073697A653D22332220BE
:103A70006D61786C656E6774683D223322207479BD
:103A800070653D22746578742220636C6173733DA8
:103A900022696E707574223E3C2F74643E090D0AD3
:103AA000093C2F74723E0D0A093C74723E0D0A09DE
:103AB000093C74642077696474683D2233302522A0
:103AC0003E3C2F74643E0D0A09093C746420616C0D
:103AD00069676E3D226C6566742220636F6C73703B
:103AE000616E3D2234223E3C627574746F6E2063B9
:103AF0006C6173733D22627574746F6E20627574AD
:103B0000746F6E2D736176652220747970653D2225
:103B10007375626D6974222076616C75653D2254FF
:103B200065737422206E616D653D226574685F73F4
:103B30006970223ED0A1D0BED185D180D0B0D0BD99
:103B4000D0B8D182D18C3C2F627574746F6E3E3CBC
:103B50002F74643E0D0A093C2F74723E0D0A093C15
:103B60002F74626F64793E0D0A3C2F7461626C653C
:103B70003E09090D0A3C2F666F726D3E0D0A0D0A53
:103B80003C62723E0D0A3C666F726D206E616D651F
:103B9000203D20227365745F706172616D22206D1B
:103BA0006574686F64203D2022676574222061631C
:103BB00074696F6E203D20222F776562322E636715
:103BC00069223E0D0A3C7461626C65202072756C3E
:103BD00065733D226E6F6E65222077696474683D5F
:103BE000223130302522203E0D0A3C74626F647908
:103BF0003E0D0A093C74723E0D0A09093C746420AA
:103C0000636C6173733D2274642220616C69676E1A
:103C10003D227269676874223ED0A8D0BBD18ED095
:103C2000B73A3C2F74643E09090D0A09093C7464D3
:103C300020616C69676E3D226C656674223E3C694A
:103C40006E707574206E616D653D2267775F697077
:103C50005F616430222073697A653D223322206DD2
:103C600061786C656E6774683D22332220747970C8
:103C7000653D22746578742220636C6173733D2204
:103C8000696E707574223E3C2F74643E0D0A0909FA
:103C90003C746420616C69676E3D226C65667422B9
:103CA0003E3C696E707574206E616D653D2267776C
:103CB0005F69705F616431222073697A653D2233E8
:103CC00022206D61786C656E6774683D2233222016
:103CD000747970653D22746578742220636C617319
:103CE000733D22696E707574223E3C2F74643E0DE4
:103CF0000A09093C746420616C69676E3D226C6539
:103D00006674223E3C696E707574206E616D653D0F
:103D10002267775F69705F616432222073697A6518
:103D20003D223322206D61786C656E6774683D2298
:103D3000332220747970653D227465787422206383
:103D40006C6173733D22696E707574223E3C2F74F2
:103D5000643E0D0A09093C746420616C69676E3D1C
:103D6000226C656674223E3C696E707574206E61CB
:103D70006D653D2267775F69705F616433222073F0
:103D8000697A653D223322206D61786C656E6774B7
:103D9000683D22332220747970653D227465787401
:103DA0002220636C6173733D22696E707574223ECC
:103DB0003C2F74643E090D0A093C2F74723E0D0AB3
:103DC000093C74723E0D0A09093C746420776964E9
:103DD00074683D22333025223E3C2F74643E0D0A28
:103DE00009093C746420616C69676E3D226C6566EC
:103DF000742220636F6C7370616E3D2234223E3CEE
:103E0000627574746F6E20636C6173733D226275AA
:103E100074746F6E20627574746F6E2D7361766545
:103E20002220747970653D227375626D6974222059
:103E300076616C75653D225465737422206E616DE8
:103E4000653D226574685F736777223ED0A1D0BE5E
:103E5000D185D180D0B0D0BDD0B8D182D18C3C2F0B
:103E6000627574746F6E3E3C2F74643E0D0A093C9B
:103E70002F74723E0D0A093C2F74626F64793E0DF7
:103E80000A3C2F7461626C653E09090D0A3C2F667D
:103E90006F726D3E0D0A0D0A3C62723E0D0A0D0AEC
:103EA0003C62723E0D0A3C666F726D206E616D65FC
:103EB000203D20227365745F706172616D22206DF8
:103EC0006574686F64203D202267657422206163F9
:103ED00074696F6E203D20222F776562322E6367F2
:103EE00069223E0D0A3C7461626C65202072756C1B
:103EF00065733D226E6F6E65222077696474683D3C
:103F0000223130302522203E0D0A3C74626F6479E4
:103F10003E0D0A093C74723E0D0A09093C74642086
:103F2000636C6173733D2274642220616C69676EF7
:103F30003D227269676874223ED09CD0B0D181D096
:103F4000BAD0B020D0BFD0BED0B4D181D0B5D1824C
:103F5000D0B83A3C2F74643E09090D0A09093C7433
:103F60006420616C69676E3D226C656674223E3C1C
:103F7000696E707574206E616D653D226D6B5F6951
:103F8000705F616430222073697A653D223322209C
:103F90006D61786C656E6774683D22332220747998
:103FA00070653D22746578742220636C6173733D83
:103FB00022696E707574223E3C2F74643E0D0A09AE
:103FC000093C746420616C69676E3D226C6566749F
:103FD000223E3C696E707574206E616D653D226D88
:103FE0006B5F69705F616431222073697A653D227D
:103FF0003322206D61786C656E6774683D223322D0
:1040000020747970653D22746578742220636C6138
:1040100073733D22696E707574223E3C2F74643E4A
:104020000D0A09093C746420616C69676E3D226C5D
:10403000656674223E3C696E707574206E616D65B4
:104040003D226D6B5F69705F616432222073697A13
:10405000653D223322206D61786C656E6774683D22
:1040600022332220747970653D2274657874222091
:10407000636C6173733D22696E707574223E3C2FD0
:1040800074643E0D0A09093C746420616C69676EB2
:104090003D226C656674223E3C696E707574206EBC
:1040A000616D653D226D6B5F69705F6164332220D5
:1040B00073697A653D223322206D61786C656E6785
:1040C00074683D22332220747970653D22746578CE
:1040D000742220636C6173733D22696E7075742263
:1040E0003E3C2F74643E090D0A093C2F74723E0D4C
:1040F0000A093C74723E0D0A09093C746420776910
:104100006474683D22333025223E3C2F74643E0D9A
:104110000A09093C746420616C69676E3D226C6514
:1041200066742220636F6C7370616E3D2234223E90
:104130003C627574746F6E20636C6173733D2262B0
:104140007574746F6E20627574746F6E2D73617602
:10415000652220747970653D227375626D697422E1
:104160002076616C75653D225465737422206E6102
:104170006D653D226574685F736D6B223ED0A1D082
:10418000BED185D180D0B0D0BDD0B8D182D18C3C49
:104190002F627574746F6E3E3C2F74643E0D0A0975
:1041A0003C2F74723E0D0A093C2F74626F64793E95
:1041B0000D0A3C2F7461626C653E09090D0A3C2FA3
:1041C000666F726D3E0D0A0D0A3C62723E0D0A0D5D
:1041D0000A3C2F6469763E0D0A3C2F6469763E0DD9
:1041E0000A3C2F626F64793E0D0A3C2F68746D6C37
:1041F0003E0000002DE9FE4F07008846002F08D141
:10420000DFF8D8388322DFF8D818DFF8B00C01F0D7
:10421000C5FE7868DFF8CC18086078891428C0F2E9
:104220003283DFF8C4080168DFF8BC08406901F098
:10423000C9FE002806D1DFF8B008007D10F0F000BC
:10424000E02800D11FE3DFF89C080068808901F0B6
:10425000E1FE80B2000B800081464846C0B21428BF
:1042600005DB38894946C9B289B2884200D20AE3DF
:104270004846C0B21438DFF8741808800020DFF810
:104280007018086078894946C9B289B288420BD350
:10429000DFF858080088DFF85C1808804946C9B282
:1042A000380002F01DF94EE03868002808D1DFF828
:1042B0002C38C222DFF84018DFF8000C01F06EFE47
:1042C0001421380002F00CF97889DFF828180880EA
:1042D000DFF818080088DFF81C180C88041BDFF8CA
:1042E00014080188380002F0FBF838684089210082
:1042F00089B28842C0F0C78238684068DFF8F0179A
:104300000860210089B2386802F0EAF83889001B99
:1043100038817889002808D0DFF8C037DF22DFF83D
:10432000DC17DFF8980B01F039FE38893968098904
:10433000884208D0DFF8A437E022DFF8C417DFF89E
:104340007C0B01F02BFEDFF89C070068008801F071
:1043500061FEDFF8901709680880DFF888070068B9
:10436000408801F057FEDFF87C1709684880DFF8C5
:1043700074070168486801F055FEDFF8681709689E
:104380004860DFF83C1B0860DFF858070168886860
:1043900001F048FEDFF84C1709688860DFF8641701
:1043A0000860DFF840070068C08901F033FEDFF8DD
:1043B00034170968C881DFF82C070068808901F08C
:1043C00029FE10F03F00DFF8701C08703889DFF814
:1043D00038170880DFF8600C007810F0030F0DD05C
:1043E000DFF824070088401CDFF81C170880DFF87E
:1043F0001807008839898842C0F045820026DFF816
:104400000C070468002C75D0207D002808D1DFF847
:10441000CC36FB22DFF8F816DFF8A00A01F0BEFD6B
:10442000207D0A2808D1DFF8B436FC22DFF8E41634
:10443000DFF8880A01F0B2FD207D012808D1DFF8FD
:104440009C36FD22DFF8D016DFF8700A01F0A6FDD9
:10445000207A00280BD0207ADFF88C16496891F872
:104460003410491CC9B2884201D0260040E0208B9C
:10447000DFF8701609680988884238D1E08ADFF8C9
:10448000641609684988884231D16068DFF8581697
:10449000096988422BD12068DFF84C1649698842A7
:1044A00025D1E068A04209D1DFF8303640F20D1284
:1044B000DFF86816DFF8040A01F070FD002E08D05E
:1044C000E068F060DFF844060068E060DFF83C0672
:1044D0000460E068A04209D1DFF8003640F215120E
:1044E000DFF83C16DFF8D40901F058FD02E02600A1
:1044F000E46887E7002C40F08480DFF82806006835
:104500000400002C3CD0207D0A2809D0DFF8CC35EF
:1045100040F21F12DFF81016DFF8A00901F03EFD8F
:10452000207A002809D0207ADFF8BC15496891F874
:104530003410491CC9B2884220D1208BDFF8A41561
:1045400009680988884219D1E08ADFF89815096856
:104550004988884212D16068DFF88C150969884261
:104560000CD12068DFF880154969884206D1200007
:1045700000F05EFA380002F00CF887E1E468C0E76A
:1045800000200600DFF8C00B00680500002D24D0D5
:10459000287A00280BD0287ADFF84C15496891F862
:1045A0003410491CC9B2884201D02E0013E0E88AB9
:1045B000DFF830150968498888420BD12868DFF890
:1045C00028154969884208D0002D02D028680028A3
:1045D00000D102E02E00ED68D8E7002D11D0002EAA
:1045E00008D0E868F060DFF8600B0068E860DFF88A
:1045F000580B0560280000F075F9380001F0C9FF7C
:1046000044E1002C00F01C810020DFF8E41B08606E
:104610003889DFF8DC1B0881DFF8D40B4760DFF84E
:10462000C4040068DFF8C81BC8600020DFF8C41BA2
:1046300008600020DFF8C01B08700020DFF8BC1BFA
:104640000880DFF8F4090078000703D5787B50F084
:1046500001007873A06F002814D0200003F0F2F856
:1046600010F10D0F07D0A06F00280BD0DFF89804D1
:104670000088002806D0608D002802D1200005F0B7
:1046800085F8C6E0DFF8780B0460200000F04EFAF1
:104690008246504640B210F10D0F00F0BA80DFF8AC
:1046A000580B0078000712D5D4F89000002805D0E8
:1046B0007FF00D012069D4F8902090472100DFF8A9
:1046C0004C0403F053FB200002F0C1F9A1E00020EC
:1046D0008246DFF8280B008800281CD0DFF81C0B6E
:1046E000B0F800B0D4F88000002808D05A4692B242
:1046F00021002069D4F880309847824601E00020EC
:104700008246504640B210F10D0F00F0828000202A
:10471000DFF8E81A0880200000F0BAF8002878D105
:10472000DFF8D00A006800283DD0A06F002809D02B
:10473000DFF8A8334FF4F372DFF8881BDFF87C074B
:1047400001F02CFCA07EC00608D5DFF8A80A00689E
:1047500001F01FFF200002F0A8FB5AE0D4F884000B
:1047600000280AD00023DFF88C0A026821002069A3
:10477000D4F884C0E047824608E00023DFF8740ADA
:1047800002682100002003F00CF98246504640B236
:1047900010F10D0F3DD0504640B2002803D0DFF895
:1047A000540A0068A067DFF8500A0078800624D514
:1047B000A06F002806D0A06F407B50F02000A16FB2
:1047C00048731AE0208DB0F5066F02D0208D401C92
:1047D0002085D4F88400002808D00023002221007E
:1047E0002069D4F884C0E047824601E00020824678
:1047F000504640B210F10D0F0BD00020DFF8001A28
:104800000860200000F044F8002802D1200004F0E5
:1048100013FB0020DFF8E81908600020DFF8D41946
:104820000860DFF8CC09406800282BD0DFF8C00909
:10483000406801F0AEFE0020DFF8B419486021E0C6
:10484000A8480068808901F0E5FB400717D4A54817
:10485000006800880290A348006840880190DFF853
:10486000680A0090DFF8643ADFF854060068A64949
:1048700009884218A3480168002004F037FF380077
:1048800001F087FE02E0380001F083FEBDE8F78FFB
:1048900010B50400002C08D1904B40F25A22DFF8EA
:1048A000301ADFF8180601F079FBDFF84C090078C0
:1048B000C00615D5A07EC00609D4D4F89000002803
:1048C00005D07FF00E012069D4F890209047210098
:1048D0008E4803F04BFA200002F0B9F8012000E006
:1048E000002010BDFEB50400DFF84C07007840073B
:1048F00000F19D80002C08D1784B40F28122DFF836
:10490000D419DFF8B80501F049FBDFF82C0700786F
:10491000C00618D573480068008802907148006886
:1049200040880190DFF8A0090090DFF8A039DFF897
:10493000900500687449098842187248016820008F
:1049400004F0D4FE73E0DFF8F006007880076ED53F
:10495000607D03F0FFF80500002D0CD1A069002850
:1049600006D05FF0FF3200212069A369984701E07B
:104970007FF00F005BE05C48406928605A4800699E
:104980006860E08AE882574800680088288303202E
:104990002875DFF82C050068401C6862686AE862C8
:1049A000280003F049FA0600AE652E656E64EE65D8
:1049B000DFF80C050068401E686520692861EC6717
:1049C000607A10F00C006872207A28724F480068F4
:1049D000E8604E48056005F039F80120DFF8F81866
:1049E0000870280001F044FA3E480068C089A5F824
:1049F0006000B5F86000A5F86200281D05F026F9F2
:104A000001002A1D688E03F02FFA68861221280003
:104A100004F032F90700380040B2002804D0002129
:104A2000280002F0ACF902E0280004F005FAF7BD16
:104A30001FB50400DFF80006007840074CD4002CB6
:104A400008D1264B40F2EE22DFF89018DFF86C0414
:104A500001F0A4FADFF8E0050078800728D5DFF838
:104A600060040168606A091A00292AD4DFF850043A
:104A70000168606A091A208D091A012921DA19488A
:104A80000068008802901748006840880190DFF8AD
:104A900038080090DFF83438DFF8240400681A4939
:104AA0000988421817480168200004F01FFE13E02F
:104AB000DFF884050078C00703D5DFF82408006814
:104AC000206211480088002806D0608B50F0020058
:104AD0006083200004F0B0F91FBD0000C0F501089C
:104AE000201F0208D0F10020BCEF002020F200209F
:104AF000D4F1002022F20020742402083828020891
:104B00005C140208DCF1002028F20020C8F100202B
:104B1000A40A020814050208CC0A0208400502088B
:104B20006C050208CCF1002070020208FEB50500F9
:104B300000260027002D09D1DFF8D43A4FF4477240
:104B4000DFF8A017DFF8740301F028FADFF8E804B3
:104B5000007840074AD5287D022808D1DFF8B40A3A
:104B60000068296D88421FD1012006001CE0DFF893
:104B700050030068696A884202D10120060013E0F0
:104B8000DFF83C030168686A091A00290CD4DFF8D1
:104B900030030168686A091A288D091A012903DAA5
:104BA000688B50F0020068833000C0B200281BD030
:104BB000287D002808D1DFF8583A4FF44E72DFF80C
:104BC0002817BE4801F0EAF9DFF82C06007850F00B
:104BD0000800DFF824160870698B4FF6FE7001405C
:104BE00069837FF00D00AEE20020ACE2DFF84804FC
:104BF000007880070BD5287D022808D0287D03285F
:104C000005D0688B50F00200688300209BE2A87EEC
:104C1000C00603D4DFF8C80600682862002085F8C3
:104C20009B00002085F89A00280001F021F9287DDA
:104C3000022814D0C0F08682042800F09381C0F0CE
:104C4000DD80062800F0FA81C0F09A81082800F083
:104C50002882C0F08781092800F05C8272E2DFF8C8
:104C6000D803007810F01200122840F09E80DFF880
:104C7000A4090068696C491C884240F096809048FD
:104C80000068401C6862686AE862DFF888090068AA
:104C90006864DFF884090068C089A5F86000B5F889
:104CA0006000A5F8620086480068401E6865042020
:104CB0002875281D04F0CAFF01002A1D688E03F024
:104CC000D3F86886688E400041F21D11884202D3F5
:104CD000688E400001E041F21C10698E890081421B
:104CE00003D2688E80B280000BE0688E400041F2F3
:104CF0001D11884203D3688E80B2400001E041F26A
:104D00001C10A5F84800B5F86600002808D1DFF8A7
:104D100000394FF45B72DFF8D415684801F03EF9B2
:104D2000B5F86600401EA5F86600286F0400002C48
:104D30000FD1E86E0400002C08D1DFF8D4384FF40E
:104D40005D72DFF8AC155D4801F028F92068E8666F
:104D500001E020682867200002F0DDFD286F0028B0
:104D600003D15FF0FF30288604E000202886002071
:104D700085F84200D5F88800002807D000222900D5
:104D80002869D5F888309847070001E0002007001F
:104D9000380040B210F10D0F02D17FF00C00D2E1CB
:104DA000688B50F00200688327E0A3480078C006B3
:104DB00023D5DFF86408006800880290DFF85808FF
:104DC000006840880190DFF800050090DFF8FC34AF
:104DD0003B480068DFF8C01B09884218DFF8340838
:104DE0000168280004F082FC95F84200062804DAE5
:104DF00000202886280004F0C5FAA3E18E48007838
:104E0000C00640F1A080DFF80C080168686C091A40
:104E1000491E00297AD4DFF8FC070168286D091AB9
:104E2000012973DA04202875E86F002803D17FF088
:104E3000050007001BE0E86F8069002808D1DFF853
:104E4000D0374FF46A72DFF8AC141C4801F0A6F8B2
:104E5000E86F8069002807D0002229002869EB6FDD
:104E60009B699847070002E07FF00F0007003800B9
:104E700040B200280AD0380040B210F10D0F02D025
:104E8000280002F012F87FF00C005CE1280000F02E
:104E90003BFADFF868030088002806D0DFF85C03DF
:104EA0000088401EDFF854130880688E400041F2ED
:104EB0001D11884206D3688E400005E07C0A020876
:104EC000D8F1002041F21C10698E8900814203D282
:104ED000688E80B280000BE0688E400041F21D11A8
:104EE000884203D3688E80B2400001E041F21C107A
:104EF000A5F84800DFF800030078800631D5688BFC
:104F000050F002006883072028752AE0DFF80807C0
:104F1000006800880290DFF8000700684088019070
:104F2000DFF8A4030090DFF8A433DFF8CC030068B7
:104F3000DFF8641A09884218DFF8D80601682800EB
:104F400004F0D4FB0DE03C480078800709D5DFF879
:104F5000A8030068696A491E884202D1280004F04B
:104F60002DFAEFE0280000F0CFF9A3480078800682
:104F700005D5688B50F00200688307202875E1E0B2
:104F8000280000F0C1F99C480078800643D52A48E3
:104F90000078C00638D5DFF87C060068296D8842A5
:104FA00032D1E86E00282FD1688B50F00200688360
:104FB000280002F098FEDFF844030068A84207D1F9
:104FC000DFF838030068C068DFF8301308600CE0D1
:104FD000DFF828030068002807D0C168A94202D181
:104FE000E968C16001E0C068F5E70020E8600120E1
:104FF000B94908700A202875C1480068E860C048AF
:10500000056004F023FD15E0688B50F00200688312
:10501000082028750EE008480078C0060AD5DFF899
:10502000F4050068296D884204D1E86E002801D19A
:105030000620287586E000BF36F20020280000F028
:1050400063F96D48007880062AD5688B50F002001D
:105050006883280002F047FEA8480068A84205D1EE
:10506000A6480068C068A54908600BE0A34800682E
:10507000002807D0C168A94202D1E968C16001E0F7
:10508000C068F5E70020E8600120934908700A2015
:1050900028759B480068E8609948056004F0D6FCD4
:1050A00050E0280000F030F9DFF8C40B0078C006AB
:1050B0002FD5DFF860050068296D884229D1E86E98
:1050C000002826D1280002F00EFE8C480068A84275
:1050D00005D18A480068C068884908600BE08748A5
:1050E0000068002807D0C168A94202D1E968C16000
:1050F00001E0C068F5E70020E8600120764908700B
:105100000A2028757E480068E8607D48056004F044
:105110009DFC17E0280000F0F7F8DFF8540B00784A
:10512000C0060ED5DFF8EC040068296D884208D16E
:10513000E86E002805D13048007850F010002E4964
:105140000870FFE70020FEBDC4F1002070B5050027
:105150000C00002D08D1DFF8B83440F21F42694935
:10516000DFF8B40C00F01AFFE868808900F052FF05
:10517000C00705D5200002F0C3FB0020040035E085
:10518000002C1ED0E06841685B4800682A898018BE
:10519000411A2089091A002913D4E068808900F097
:1051A00039FFC00707D5012000F034FFE96889897D
:1051B0000843E968888126002468300002F0ABFBD0
:1051C000DEE7002C12D0E16848684B4909682A895B
:1051D0008918081A012809DBE06841684648006818
:1051E000091A29812989686801F0CCF82C6070BD02
:1051F0004CF00020E0F1002037F2002026F20020E1
:10520000E4F100202DE9F04706000C0017001D0016
:10521000002C54D0E168486800F004FF8246E06842
:10522000808900F0F7FE10F0030F01D0012100E0AB
:10523000002120891AEB00000918DFF8D803006864
:10524000091A01293BDAA0462468D8F8040001F0C5
:105250001DFA8146B6F86600494689B2884209D2ED
:10526000DFF8AC3340F25742DFF8F01BDFF8A80B51
:1052700000F094FEB6F86600B0EB0900A6F86600F0
:10528000DFF8DC0B0188B8F808004118DFF8D00B14
:105290000180404602F03FFBB6F866000028B7D018
:1052A000002C0BD1002D09D1DFF8643340F26242AB
:1052B000DFF8B01BDFF8600B00F070FEA8E72000FD
:1052C000BDE8F087801B0208CCEF0020D0EF002063
:1052D000F40A02087C14020833F200209C1402082D
:1052E000BCF100209C1B0208BC140208381F0208F5
:1052F0005C220208DC140208D8F10020C8F100206A
:10530000CCF100201C0B02082DE9F84F0600002705
:10531000002E08D1BE4B40F27B42DFF84C1BDFF879
:10532000F80A00F03BFE307D042808DAB84B40F262
:105330007C42DFF8381BDFF8E00A00F02FFEDFF8D0
:1053400030090078C00640F1AD81B6F86000B16D5B
:1053500008188046716DDFF8E40B0068091A00290F
:1053600017D4706DDFF8D41B0968884205D1B16D80
:10537000A8480068091A00290BD4B06DA54909682E
:1053800088421CD1B6F86000A3490968C9898842DF
:1053900015D2A1480068C089A6F86000B6F862007E
:1053A000B6F86010884203D2B6F86000A6F8620032
:1053B000DFF8880B0068706596480068B06595480E
:1053C0000168706C091A012948DADFF8CC050088F9
:1053D00000283CD1B06DB6F860104018404536D179
:1053E000B6F93000002832D4706C8A4909688842C6
:1053F0002DD10120070096F8430096F84310491C70
:10540000C9B2884204D296F84300401C86F8430093
:1054100096F84300042813DBB6F84810708E411844
:10542000B6F8480089B2814206D3B6F84810708EAB
:105430004118A6F8481003E04FF6FF70A6F84800A0
:1054400096F84300032802DB300004F003F8002F35
:1054500040F0F680002086F84300F1E06D480168D6
:10546000706C091A491E002900F1E780694801683B
:10547000306D091A012980F2E080B07E40070BD51B
:10548000718B4FF6FB7001407183B6F84A00A6F8A5
:1054900048000020A6F86A00002086F84200B6F90D
:1054A0003C00C010B6F93E104018A6F8400059481C
:1054B0000068746C041B002086F84300554800689F
:1054C0007064307D042861DBB6F84800B6F84A10F5
:1054D000884228D2708B000501D5012100E002210D
:1054E00022000B00DBB2708E434392B29BB29A4211
:1054F00001D2200004E00800C0B2728E10FB02F05E
:10550000B6F848208218B6F8483092B29A4205D3CD
:10551000B6F848208218A6F8482003E04FF6FF723C
:10552000A6F8482032E0B6F86A002018B6F86A10EB
:1055300080B2884205D3B6F86A002018A6F86A003F
:1055400003E04FF6FF70A6F86A00B6F86A00B6F8F6
:10555000481088421AD3B6F86A10B6F84800091AFB
:10556000A6F86A10B6F84810708E4118B6F84800D0
:1055700089B2814206D3B6F84810708E4118A6F859
:10558000481003E04FF6FF70A6F84800F36EDFF80E
:10559000B029316F3000FFF735FE3067336FDFF829
:1055A000A429F16E3000FFF72DFEF066306F002861
:1055B00003D15FF0FF30308601E00020308600200C
:1055C0003077F06E002802D10020A6F86800B6F807
:1055D0006410DFF88C0800884118A6F86410708BFE
:1055E00000052DD5306F002818D1F06E002808D0A6
:1055F000F06EC168486800F015FDF16C081A0128CA
:105600001EDA718B4FF2FF700140718318E000BF0A
:10561000C0F50108DCF10020D0F10020306FC16836
:10562000486800F0FFFCF16C081A012808DA718B59
:105630004FF2FF700140718302E0300004F0A6F8E1
:10564000706B00282ED0B16BDFF8FC080068091AD7
:10565000002927D5DFF8F4080168706B081A00B23A
:10566000B6F93C10B0EBE100B18F4118B1870100F1
:1056700009B2002901D500B2404281460FFA89F9EA
:10568000B6F93E00B9EBA009F08F19EB0000F087E6
:10569000B6F93C00C010B6F93E104018A6F840001C
:1056A00000207063BC480088002800F09F83307D94
:1056B000072880F29B83716ADFF880080068091A66
:1056C000491E002970D4716ADFF870080068091A51
:1056D000B1480088091A491C012965DADFF8700809
:1056E0004468706ADFF854180D68451BDFF86008DD
:1056F0004068002809D1DFF85C3840F29452DFF8A6
:105700005818DFF8140700F049FC4FF6FF70854287
:1057100009D3DFF8403840F29552DFF84018DFF83F
:10572000F80600F03BFCAB46DFF82408406800892F
:10573000594689B2884209D2DFF8183840F29752A8
:10574000DFF81C18DFF8D00600F028FCDFF80008AE
:105750000089B0EB0B00DFF8F8170881DFF8F007DD
:105760004068B0F808A0BAEB0B0A6089594689B2C4
:10577000884208D26089BBEB000BA4F808A0002087
:1057800060812468F1E7594689B2200000F0A8FE44
:10579000706ADFF8A8170860DFF8B407C068DFF8A0
:1057A0009C17096841600AE0DFF890070168706A99
:1057B000091A002903D5708B50F002007083DFF8BE
:1057C0007C070168706A091A002900F10B83DFF871
:1057D0006C070168706A091A308D091A491C012981
:1057E00080F20083706ADFF854170968884240F03D
:1057F000F781DFF85C07C068808900F00BFC10F0CF
:10580000030F01D0012000E00020DFF844170989D0
:10581000401861490880308D5F490988884260D20C
:10582000DFF82C07C068808900F0F4FBC00716D5AC
:10583000DFF81C07C068808900F0ECFBC0B210F0F4
:105840003E0000F0E7FBDFF80817C9688A894CF2D0
:10585000FF010A401043DFF8F816C9688881308DCF
:10586000DFF8EC160881DFF8E806C068808900F0F0
:10587000D1FB800706D5DFF8D8060089401EDFF887
:10588000D0160881DFF8C8060189DFF8C406406831
:1058900000F078FDDFF8B806C068808900F0BAFB38
:1058A00010F0030F01D0012000E00020DFF8A01667
:1058B0000989401838490880DFF8800600683649B1
:1058C00009884018716A328D8918884209D0DFF83A
:1058D000843640F2CC52DFF88C16DFF83C0500F03D
:1058E0005DFB706F002800F0B080DFF86406C068D0
:1058F000808900F08FFBC0070BD5706F002800F087
:10590000A480746F706F00687067200002F003F865
:10591000F3E7746F002C41D0E0684168DFF81C06A3
:1059200000681D4A12888018411A2089091A002926
:1059300034D4E068808900F06DFBC00725D5DFF81E
:105940001006C068808900F065FB80071DD4012027
:1059500000F060FBDFF8F815C96889890843DFF8B3
:10596000F015C9688881DFF8E805C068808900F013
:1059700051FB10F0030F01D0012000E00020DFF800
:10598000D01509894018044908802500246828009A
:1059900001F0C1FFBEE700BF28F20020002C53D069
:1059A000E1684868DFF894150968DFF8BC251288BB
:1059B0008918081A012847DBE0684168DFF87C0590
:1059C0000068091ADFF888050181DFF88405C068DE
:1059D000808900F01FFB800706D5DFF87405008979
:1059E000401EDFF86C150881DFF864050189DFF8D7
:1059F0006005406800F0C6FCDFF85405C068808987
:105A000000F008FB10F0030F01D0012000E000209F
:105A1000DFF83C1509894018DFF84C150880E1686B
:105A20004868DFF818150968DFF83C2512888918DE
:105A3000814209D0DFF81C3540F2FD52DFF82C1509
:105A4000DFF8D40300F0AAFA7467DFF8F004006806
:105A5000DFF81415098840187062308DDFF80815DA
:105A60000988884209D2DFF8EC3440F20762DFF897
:105A70000015DFF8A40300F091FA318DDFF8E80497
:105A80000088091A3185300001F028FBDFF8C004D6
:105A900040680089002809D0DFF8B4044068DFF8C6
:105AA000D41408600020DFF8A8144860DFF8A004D0
:105AB000C068808900F0AEFAC00707D5DFF8B804E7
:105AC000007850F02000DFF8B0140870706F0028E4
:105AD00074D0706FC1684868716A88426ED1746F03
